:020000020000FC
:1000000022C004C003C004C001C000C0A06F189586
:100010001FB7B395B7705B2FCA2FC5955A95EAF7EE
:1000200010F0C09A02C0C09800C0572F562B11F094
:10003000615070401FBF189586B383FF2CC0872F77
:10004000862BD1F70895EEEFF3E0C89501BE07E0E7
:1000500007BB0FEF08BB05E003BF02E009BF02E0EA
:1000600008BF00270BBF0ABF77276627A0E5789453
:1000700006B304FF0AC006B303FF0DC004FDFBCFA7
:10008000A5E5C298C19862E3D7DFA5E5C29A06B399
:0A00900003FF01C0FACFA0EFFECF7E
:00000001FF
