:020000020000FC
:1000000021C017C016C01AC014C013C0BA9ABC9A37
:10001000BB9AB898B998C29AC49AC39A05E003BF2C
:1000200002E009BF02E008BF00270BBF0ABF7894B7
:1000300008951FB724E023BF1FBF18951FB72AD00C
:100040001FBF1895E3DF01D0FECFA6B2A0FC02C00F
:10005000C29AC398A1FC02C0C298C39A0895B6B2CE
:10006000B0FC01C0C49AB1FC01C0C49808954423F7
:1000700019F04A9509F4C29A0895552319F05A9532
:1000800009F4C49A0895439540FF02C0C29A01C082
:10009000C2980895539550FF02C0C49A01C0C498F5
:0200A0000895C1
:00000001FF
